{
	"data": {
		"bytecode": {
			"linkReferences": {},
			"object": "608060405234801561001057600080fd5b50610218806100206000396000f3fe608060405234801561001057600080fd5b50600436106100365760003560e01c8063432c64021461003b578063bfe9d30214610067575b600080fd5b61004e610049366004610179565b61007a565b60405163ffffffff909116815260200160405180910390f35b61004e610075366004610179565b61010a565b60008163ffffffff168363ffffffff16116100f75760405162461bcd60e51b815260206004820152603260248201527f31737420706172616d657465722073686f756c642062652067726561746572206044820152713a3430b710193732103830b930b6b2ba32b960711b60648201526084015b60405180910390fd5b61010182846101ac565b90505b92915050565b60008263ffffffff166005141561014f5760405162461bcd60e51b81526020600482015260096024820152686e756d41206973203560b81b60448201526064016100ee565b61015982846101ac565b9050610104565b803563ffffffff8116811461017457600080fd5b919050565b6000806040838503121561018c57600080fd5b61019583610160565b91506101a360208401610160565b90509250929050565b600063ffffffff8083168185168083038211156101d957634e487b7160e01b600052601160045260246000fd5b0194935050505056fea2646970667358221220f4a180aac38f36078b4f30f0073f51b30136448b027f76c401594a00062acbfe64736f6c63430008070033",
			"opcodes": "PUSH1 0x80 PUSH1 0x40 MSTORE CALLVALUE DUP1 ISZERO PUSH2 0x10 JUMPI PUSH1 0x0 DUP1 REVERT JUMPDEST POP PUSH2 0x218 DUP1 PUSH2 0x20 PUSH1 0x0 CODECOPY PUSH1 0x0 RETURN INVALID PUSH1 0x80 PUSH1 0x40 MSTORE CALLVALUE DUP1 ISZERO PUSH2 0x10 JUMPI PUSH1 0x0 DUP1 REVERT JUMPDEST POP PUSH1 0x4 CALLDATASIZE LT PUSH2 0x36 JUMPI PUSH1 0x0 CALLDATALOAD PUSH1 0xE0 SHR DUP1 PUSH4 0x432C6402 EQ PUSH2 0x3B JUMPI DUP1 PUSH4 0xBFE9D302 EQ PUSH2 0x67 JUMPI JUMPDEST PUSH1 0x0 DUP1 REVERT JUMPDEST PUSH2 0x4E PUSH2 0x49 CALLDATASIZE PUSH1 0x4 PUSH2 0x179 JUMP JUMPDEST PUSH2 0x7A JUMP JUMPDEST PUSH1 0x40 MLOAD PUSH4 0xFFFFFFFF SWAP1 SWAP2 AND DUP2 MSTORE PUSH1 0x20 ADD PUSH1 0x40 MLOAD DUP1 SWAP2 SUB SWAP1 RETURN JUMPDEST PUSH2 0x4E PUSH2 0x75 CALLDATASIZE PUSH1 0x4 PUSH2 0x179 JUMP JUMPDEST PUSH2 0x10A JUMP JUMPDEST PUSH1 0x0 DUP2 PUSH4 0xFFFFFFFF AND DUP4 PUSH4 0xFFFFFFFF AND GT PUSH2 0xF7 JUMPI PUSH1 0x40 MLOAD PUSH3 0x461BCD PUSH1 0xE5 SHL DUP2 MSTORE PUSH1 0x20 PUSH1 0x4 DUP3 ADD MSTORE PUSH1 0x32 PUSH1 0x24 DUP3 ADD MSTORE PUSH32 0x31737420706172616D657465722073686F756C64206265206772656174657220 PUSH1 0x44 DUP3 ADD MSTORE PUSH18 0x3A3430B710193732103830B930B6B2BA32B9 PUSH1 0x71 SHL PUSH1 0x64 DUP3 ADD MSTORE PUSH1 0x84 ADD JUMPDEST PUSH1 0x40 MLOAD DUP1 SWAP2 SUB SWAP1 REVERT JUMPDEST PUSH2 0x101 DUP3 DUP5 PUSH2 0x1AC JUMP JUMPDEST SWAP1 POP JUMPDEST SWAP3 SWAP2 POP POP JUMP JUMPDEST PUSH1 0x0 DUP3 PUSH4 0xFFFFFFFF AND PUSH1 0x5 EQ ISZERO PUSH2 0x14F JUMPI PUSH1 0x40 MLOAD PUSH3 0x461BCD PUSH1 0xE5 SHL DUP2 MSTORE PUSH1 0x20 PUSH1 0x4 DUP3 ADD MSTORE PUSH1 0x9 PUSH1 0x24 DUP3 ADD MSTORE PUSH9 0x6E756D412069732035 PUSH1 0xB8 SHL PUSH1 0x44 DUP3 ADD MSTORE PUSH1 0x64 ADD PUSH2 0xEE JUMP JUMPDEST PUSH2 0x159 DUP3 DUP5 PUSH2 0x1AC JUMP JUMPDEST SWAP1 POP PUSH2 0x104 JUMP JUMPDEST DUP1 CALLDATALOAD PUSH4 0xFFFFFFFF DUP2 AND DUP2 EQ PUSH2 0x174 JUMPI PUSH1 0x0 DUP1 REVERT JUMPDEST SWAP2 SWAP1 POP JUMP JUMPDEST PUSH1 0x0 DUP1 PUSH1 0x40 DUP4 DUP6 SUB SLT ISZERO PUSH2 0x18C JUMPI PUSH1 0x0 DUP1 REVERT JUMPDEST PUSH2 0x195 DUP4 PUSH2 0x160 JUMP JUMPDEST SWAP2 POP PUSH2 0x1A3 PUSH1 0x20 DUP5 ADD PUSH2 0x160 JUMP JUMPDEST SWAP1 POP SWAP3 POP SWAP3 SWAP1 POP JUMP JUMPDEST PUSH1 0x0 PUSH4 0xFFFFFFFF DUP1 DUP4 AND DUP2 DUP6 AND DUP1 DUP4 SUB DUP3 GT ISZERO PUSH2 0x1D9 JUMPI PUSH4 0x4E487B71 PUSH1 0xE0 SHL PUSH1 0x0 MSTORE PUSH1 0x11 PUSH1 0x4 MSTORE PUSH1 0x24 PUSH1 0x0 REVERT JUMPDEST ADD SWAP5 SWAP4 POP POP POP POP JUMP INVALID LOG2 PUSH5 0x6970667358 0x22 SLT KECCAK256 DELEGATECALL LOG1 DUP1 0xAA 0xC3 DUP16 CALLDATASIZE SMOD DUP12 0x4F ADDRESS CREATE SMOD EXTCODEHASH MLOAD 0xB3 ADD CALLDATASIZE DIFFICULTY DUP12 MUL PUSH32 0x76C401594A00062ACBFE64736F6C634300080700330000000000000000000000 "
		},
		"gasEstimates": {
			"creation": {
				"codeDepositCost": "107200",
				"executionCost": "153",
				"totalCost": "107353"
			},
			"external": {
				"pureFunction(uint32,uint32)": "infinite",
				"pureRevertFunction(uint32,uint32)": "infinite"
			}
		},
		"methodIdentifiers": {
			"pureFunction(uint32,uint32)": "432c6402",
			"pureRevertFunction(uint32,uint32)": "bfe9d302"
		}
	},
	"abi": [
		{
			"inputs": [
				{
					"internalType": "uint32",
					"name": "_numA",
					"type": "uint32"
				},
				{
					"internalType": "uint32",
					"name": "_numB",
					"type": "uint32"
				}
			],
			"name": "pureFunction",
			"outputs": [
				{
					"internalType": "uint32",
					"name": "",
					"type": "uint32"
				}
			],
			"stateMutability": "pure",
			"type": "function"
		},
		{
			"inputs": [
				{
					"internalType": "uint32",
					"name": "_numA",
					"type": "uint32"
				},
				{
					"internalType": "uint32",
					"name": "_numB",
					"type": "uint32"
				}
			],
			"name": "pureRevertFunction",
			"outputs": [
				{
					"internalType": "uint32",
					"name": "",
					"type": "uint32"
				}
			],
			"stateMutability": "pure",
			"type": "function"
		}
	]
}