{
	"data": {
		"bytecode": {
			"linkReferences": {},
			"object": "608060405234801561001057600080fd5b50610153806100206000396000f3fe608060405234801561001057600080fd5b506004361061002b5760003560e01c8063ddfc7e2914610030575b600080fd5b61003861003a565b005b60005b60058163ffffffff1610156100885760028163ffffffff16141561006057610075565b60038163ffffffff16141561007457610088565b5b8080610080906100c1565b91505061003d565b5060005b60058163ffffffff1610156100ae5780806100a6906100c1565b91505061008c565b50565b600063ffffffff82169050919050565b60006100cc826100b1565b915063ffffffff8214156100e3576100e26100ee565b5b600182019050919050565b7f4e487b7100000000000000000000000000000000000000000000000000000000600052601160045260246000fdfea2646970667358221220d6957f7a5935660a93fc2b684b6423de99af7b87c6d6b7afb90c9cefb8c6f57d64736f6c63430008070033",
			"opcodes": "PUSH1 0x80 PUSH1 0x40 MSTORE CALLVALUE DUP1 ISZERO PUSH2 0x10 JUMPI PUSH1 0x0 DUP1 REVERT JUMPDEST POP PUSH2 0x153 DUP1 PUSH2 0x20 PUSH1 0x0 CODECOPY PUSH1 0x0 RETURN INVALID PUSH1 0x80 PUSH1 0x40 MSTORE CALLVALUE DUP1 ISZERO PUSH2 0x10 JUMPI PUSH1 0x0 DUP1 REVERT JUMPDEST POP PUSH1 0x4 CALLDATASIZE LT PUSH2 0x2B JUMPI PUSH1 0x0 CALLDATALOAD PUSH1 0xE0 SHR DUP1 PUSH4 0xDDFC7E29 EQ PUSH2 0x30 JUMPI JUMPDEST PUSH1 0x0 DUP1 REVERT JUMPDEST PUSH2 0x38 PUSH2 0x3A JUMP JUMPDEST STOP JUMPDEST PUSH1 0x0 JUMPDEST PUSH1 0x5 DUP2 PUSH4 0xFFFFFFFF AND LT ISZERO PUSH2 0x88 JUMPI PUSH1 0x2 DUP2 PUSH4 0xFFFFFFFF AND EQ ISZERO PUSH2 0x60 JUMPI PUSH2 0x75 JUMP JUMPDEST PUSH1 0x3 DUP2 PUSH4 0xFFFFFFFF AND EQ ISZERO PUSH2 0x74 JUMPI PUSH2 0x88 JUMP JUMPDEST JUMPDEST DUP1 DUP1 PUSH2 0x80 SWAP1 PUSH2 0xC1 JUMP JUMPDEST SWAP2 POP POP PUSH2 0x3D JUMP JUMPDEST POP PUSH1 0x0 JUMPDEST PUSH1 0x5 DUP2 PUSH4 0xFFFFFFFF AND LT ISZERO PUSH2 0xAE JUMPI DUP1 DUP1 PUSH2 0xA6 SWAP1 PUSH2 0xC1 JUMP JUMPDEST SWAP2 POP POP PUSH2 0x8C JUMP JUMPDEST POP JUMP JUMPDEST PUSH1 0x0 PUSH4 0xFFFFFFFF DUP3 AND SWAP1 POP SWAP2 SWAP1 POP JUMP JUMPDEST PUSH1 0x0 PUSH2 0xCC DUP3 PUSH2 0xB1 JUMP JUMPDEST SWAP2 POP PUSH4 0xFFFFFFFF DUP3 EQ ISZERO PUSH2 0xE3 JUMPI PUSH2 0xE2 PUSH2 0xEE JUMP JUMPDEST JUMPDEST PUSH1 0x1 DUP3 ADD SWAP1 POP SWAP2 SWAP1 POP JUMP JUMPDEST PUSH32 0x4E487B7100000000000000000000000000000000000000000000000000000000 PUSH1 0x0 MSTORE PUSH1 0x11 PUSH1 0x4 MSTORE PUSH1 0x24 PUSH1 0x0 REVERT INVALID LOG2 PUSH5 0x6970667358 0x22 SLT KECCAK256 0xD6 SWAP6 PUSH32 0x7A5935660A93FC2B684B6423DE99AF7B87C6D6B7AFB90C9CEFB8C6F57D64736F PUSH13 0x63430008070033000000000000 "
		},
		"gasEstimates": {
			"creation": {
				"codeDepositCost": "67800",
				"executionCost": "117",
				"totalCost": "67917"
			},
			"external": {
				"createLoop()": "infinite"
			}
		},
		"methodIdentifiers": {
			"createLoop()": "ddfc7e29"
		}
	},
	"abi": [
		{
			"inputs": [],
			"name": "createLoop",
			"outputs": [],
			"stateMutability": "pure",
			"type": "function"
		}
	]
}