{
	"data": {
		"bytecode": {
			"linkReferences": {},
			"object": "60806040526000805464ffffffffff1916600117905534801561002157600080fd5b506101b9806100316000396000f3fe608060405234801561001057600080fd5b506004361061004b5760003560e01c80627635b61461005057806306661abd14610075578063b187bd261461009f578063c6d506bd146100c4575b600080fd5b6000805464ff000000001981166401000000009182900460ff1615909102179055005b005b6000546100859063ffffffff1681565b60405163ffffffff90911681526020015b60405180910390f35b6000546100b490640100000000900460ff1681565b6040519015158152602001610096565b610073600054640100000000900460ff161561011b5760405162461bcd60e51b815260206004820152601260248201527110dbdb9d1c9858dd081a5cc81c185d5cd95960721b604482015260640160405180910390fd5b6000805463ffffffff16908061013083610151565b91906101000a81548163ffffffff021916908363ffffffff16021790555050565b600063ffffffff8083168181141561017957634e487b7160e01b600052601160045260246000fd5b600101939250505056fea26469706673582212207ad7ddf41fbe0cd10c8c018540032699d478c28eab800ef1e28d48037f6d566164736f6c63430008070033",
			"opcodes": "PUSH1 0x80 PUSH1 0x40 MSTORE PUSH1 0x0 DUP1 SLOAD PUSH5 0xFFFFFFFFFF NOT AND PUSH1 0x1 OR SWAP1 SSTORE CALLVALUE DUP1 ISZERO PUSH2 0x21 JUMPI PUSH1 0x0 DUP1 REVERT JUMPDEST POP PUSH2 0x1B9 DUP1 PUSH2 0x31 PUSH1 0x0 CODECOPY PUSH1 0x0 RETURN INVALID PUSH1 0x80 PUSH1 0x40 MSTORE CALLVALUE DUP1 ISZERO PUSH2 0x10 JUMPI PUSH1 0x0 DUP1 REVERT JUMPDEST POP PUSH1 0x4 CALLDATASIZE LT PUSH2 0x4B JUMPI PUSH1 0x0 CALLDATALOAD PUSH1 0xE0 SHR DUP1 PUSH3 0x7635B6 EQ PUSH2 0x50 JUMPI DUP1 PUSH4 0x6661ABD EQ PUSH2 0x75 JUMPI DUP1 PUSH4 0xB187BD26 EQ PUSH2 0x9F JUMPI DUP1 PUSH4 0xC6D506BD EQ PUSH2 0xC4 JUMPI JUMPDEST PUSH1 0x0 DUP1 REVERT JUMPDEST PUSH1 0x0 DUP1 SLOAD PUSH5 0xFF00000000 NOT DUP2 AND PUSH5 0x100000000 SWAP2 DUP3 SWAP1 DIV PUSH1 0xFF AND ISZERO SWAP1 SWAP2 MUL OR SWAP1 SSTORE STOP JUMPDEST STOP JUMPDEST PUSH1 0x0 SLOAD PUSH2 0x85 SWAP1 PUSH4 0xFFFFFFFF AND DUP2 JUMP JUMPDEST PUSH1 0x40 MLOAD PUSH4 0xFFFFFFFF SWAP1 SWAP2 AND DUP2 MSTORE PUSH1 0x20 ADD JUMPDEST PUSH1 0x40 MLOAD DUP1 SWAP2 SUB SWAP1 RETURN JUMPDEST PUSH1 0x0 SLOAD PUSH2 0xB4 SWAP1 PUSH5 0x100000000 SWAP1 DIV PUSH1 0xFF AND DUP2 JUMP JUMPDEST PUSH1 0x40 MLOAD SWAP1 ISZERO ISZERO DUP2 MSTORE PUSH1 0x20 ADD PUSH2 0x96 JUMP JUMPDEST PUSH2 0x73 PUSH1 0x0 SLOAD PUSH5 0x100000000 SWAP1 DIV PUSH1 0xFF AND ISZERO PUSH2 0x11B JUMPI PUSH1 0x40 MLOAD PUSH3 0x461BCD PUSH1 0xE5 SHL DUP2 MSTORE PUSH1 0x20 PUSH1 0x4 DUP3 ADD MSTORE PUSH1 0x12 PUSH1 0x24 DUP3 ADD MSTORE PUSH18 0x10DBDB9D1C9858DD081A5CC81C185D5CD959 PUSH1 0x72 SHL PUSH1 0x44 DUP3 ADD MSTORE PUSH1 0x64 ADD PUSH1 0x40 MLOAD DUP1 SWAP2 SUB SWAP1 REVERT JUMPDEST PUSH1 0x0 DUP1 SLOAD PUSH4 0xFFFFFFFF AND SWAP1 DUP1 PUSH2 0x130 DUP4 PUSH2 0x151 JUMP JUMPDEST SWAP2 SWAP1 PUSH2 0x100 EXP DUP2 SLOAD DUP2 PUSH4 0xFFFFFFFF MUL NOT AND SWAP1 DUP4 PUSH4 0xFFFFFFFF AND MUL OR SWAP1 SSTORE POP POP JUMP JUMPDEST PUSH1 0x0 PUSH4 0xFFFFFFFF DUP1 DUP4 AND DUP2 DUP2 EQ ISZERO PUSH2 0x179 JUMPI PUSH4 0x4E487B71 PUSH1 0xE0 SHL PUSH1 0x0 MSTORE PUSH1 0x11 PUSH1 0x4 MSTORE PUSH1 0x24 PUSH1 0x0 REVERT JUMPDEST PUSH1 0x1 ADD SWAP4 SWAP3 POP POP POP JUMP INVALID LOG2 PUSH5 0x6970667358 0x22 SLT KECCAK256 PUSH27 0xD7DDF41FBE0CD10C8C018540032699D478C28EAB800EF1E28D4803 PUSH32 0x6D566164736F6C63430008070033000000000000000000000000000000000000 "
		},
		"gasEstimates": {
			"creation": {
				"codeDepositCost": "88200",
				"executionCost": "24359",
				"totalCost": "112559"
			},
			"external": {
				"contractPauser()": "24359",
				"count()": "2302",
				"incremenetCount()": "28783",
				"isPaused()": "2343"
			}
		},
		"methodIdentifiers": {
			"contractPauser()": "007635b6",
			"count()": "06661abd",
			"incremenetCount()": "c6d506bd",
			"isPaused()": "b187bd26"
		}
	},
	"abi": [
		{
			"inputs": [],
			"name": "contractPauser",
			"outputs": [],
			"stateMutability": "nonpayable",
			"type": "function"
		},
		{
			"inputs": [],
			"name": "count",
			"outputs": [
				{
					"internalType": "uint32",
					"name": "",
					"type": "uint32"
				}
			],
			"stateMutability": "view",
			"type": "function"
		},
		{
			"inputs": [],
			"name": "incremenetCount",
			"outputs": [],
			"stateMutability": "nonpayable",
			"type": "function"
		},
		{
			"inputs": [],
			"name": "isPaused",
			"outputs": [
				{
					"internalType": "bool",
					"name": "",
					"type": "bool"
				}
			],
			"stateMutability": "view",
			"type": "function"
		}
	]
}