{
	"data": {
		"bytecode": {
			"linkReferences": {},
			"object": "608060405260146000556000600160006101000a81548160ff021916908315150217905550348015602f57600080fd5b5060738061003e6000396000f3fe6080604052348015600f57600080fd5b506004361060275760003560e01c80627635b614602c575b600080fd5b60326034565b005b6000600a90505056fea26469706673582212206727aa4fcdd8d7cead251a60a412b818120f55369f6605d0779b639ba182004b64736f6c63430008070033",
			"opcodes": "PUSH1 0x80 PUSH1 0x40 MSTORE PUSH1 0x14 PUSH1 0x0 SSTORE PUSH1 0x0 PUSH1 0x1 PUSH1 0x0 PUSH2 0x100 EXP DUP2 SLOAD DUP2 PUSH1 0xFF MUL NOT AND SWAP1 DUP4 ISZERO ISZERO MUL OR SWAP1 SSTORE POP CALLVALUE DUP1 ISZERO PUSH1 0x2F JUMPI PUSH1 0x0 DUP1 REVERT JUMPDEST POP PUSH1 0x73 DUP1 PUSH2 0x3E PUSH1 0x0 CODECOPY PUSH1 0x0 RETURN INVALID PUSH1 0x80 PUSH1 0x40 MSTORE CALLVALUE DUP1 ISZERO PUSH1 0xF JUMPI PUSH1 0x0 DUP1 REVERT JUMPDEST POP PUSH1 0x4 CALLDATASIZE LT PUSH1 0x27 JUMPI PUSH1 0x0 CALLDATALOAD PUSH1 0xE0 SHR DUP1 PUSH3 0x7635B6 EQ PUSH1 0x2C JUMPI JUMPDEST PUSH1 0x0 DUP1 REVERT JUMPDEST PUSH1 0x32 PUSH1 0x34 JUMP JUMPDEST STOP JUMPDEST PUSH1 0x0 PUSH1 0xA SWAP1 POP POP JUMP INVALID LOG2 PUSH5 0x6970667358 0x22 SLT KECCAK256 PUSH8 0x27AA4FCDD8D7CEAD 0x25 BYTE PUSH1 0xA4 SLT 0xB8 XOR SLT 0xF SSTORE CALLDATASIZE SWAP16 PUSH7 0x5D0779B639BA1 DUP3 STOP 0x4B PUSH5 0x736F6C6343 STOP ADDMOD SMOD STOP CALLER "
		},
		"gasEstimates": {
			"creation": {
				"codeDepositCost": "23000",
				"executionCost": "46448",
				"totalCost": "69448"
			},
			"external": {
				"contractPauser()": "135"
			}
		},
		"methodIdentifiers": {
			"contractPauser()": "007635b6"
		}
	},
	"abi": [
		{
			"inputs": [],
			"name": "contractPauser",
			"outputs": [],
			"stateMutability": "nonpayable",
			"type": "function"
		}
	]
}