{
	"data": {
		"bytecode": {
			"linkReferences": {},
			"object": "608060405260146000556000600160006101000a81548160ff0219169083151502179055504260025534801561003457600080fd5b5060c6806100436000396000f3fe6080604052348015600f57600080fd5b506004361060315760003560e01c80627635b614603657806348b1516614603e575b600080fd5b603c6058565b005b6044605a565b604051604f9190606d565b60405180910390f35b565b60025481565b6067816086565b82525050565b6000602082019050608060008301846060565b92915050565b600081905091905056fea2646970667358221220f2b884bf951f74ff2e0daeb5179e41f62293d2b845d44b5f421016a354a33e4164736f6c63430008070033",
			"opcodes": "PUSH1 0x80 PUSH1 0x40 MSTORE PUSH1 0x14 PUSH1 0x0 SSTORE PUSH1 0x0 PUSH1 0x1 PUSH1 0x0 PUSH2 0x100 EXP DUP2 SLOAD DUP2 PUSH1 0xFF MUL NOT AND SWAP1 DUP4 ISZERO ISZERO MUL OR SWAP1 SSTORE POP TIMESTAMP PUSH1 0x2 SSTORE CALLVALUE DUP1 ISZERO PUSH2 0x34 JUMPI PUSH1 0x0 DUP1 REVERT JUMPDEST POP PUSH1 0xC6 DUP1 PUSH2 0x43 PUSH1 0x0 CODECOPY PUSH1 0x0 RETURN INVALID PUSH1 0x80 PUSH1 0x40 MSTORE CALLVALUE DUP1 ISZERO PUSH1 0xF JUMPI PUSH1 0x0 DUP1 REVERT JUMPDEST POP PUSH1 0x4 CALLDATASIZE LT PUSH1 0x31 JUMPI PUSH1 0x0 CALLDATALOAD PUSH1 0xE0 SHR DUP1 PUSH3 0x7635B6 EQ PUSH1 0x36 JUMPI DUP1 PUSH4 0x48B15166 EQ PUSH1 0x3E JUMPI JUMPDEST PUSH1 0x0 DUP1 REVERT JUMPDEST PUSH1 0x3C PUSH1 0x58 JUMP JUMPDEST STOP JUMPDEST PUSH1 0x44 PUSH1 0x5A JUMP JUMPDEST PUSH1 0x40 MLOAD PUSH1 0x4F SWAP2 SWAP1 PUSH1 0x6D JUMP JUMPDEST PUSH1 0x40 MLOAD DUP1 SWAP2 SUB SWAP1 RETURN JUMPDEST JUMP JUMPDEST PUSH1 0x2 SLOAD DUP2 JUMP JUMPDEST PUSH1 0x67 DUP2 PUSH1 0x86 JUMP JUMPDEST DUP3 MSTORE POP POP JUMP JUMPDEST PUSH1 0x0 PUSH1 0x20 DUP3 ADD SWAP1 POP PUSH1 0x80 PUSH1 0x0 DUP4 ADD DUP5 PUSH1 0x60 JUMP JUMPDEST SWAP3 SWAP2 POP POP JUMP JUMPDEST PUSH1 0x0 DUP2 SWAP1 POP SWAP2 SWAP1 POP JUMP INVALID LOG2 PUSH5 0x6970667358 0x22 SLT KECCAK256 CALLCODE 0xB8 DUP5 0xBF SWAP6 0x1F PUSH21 0xFF2E0DAEB5179E41F62293D2B845D44B5F421016A3 SLOAD LOG3 RETURNDATACOPY COINBASE PUSH5 0x736F6C6343 STOP ADDMOD SMOD STOP CALLER "
		},
		"gasEstimates": {
			"creation": {
				"codeDepositCost": "39600",
				"executionCost": "68571",
				"totalCost": "108171"
			},
			"external": {
				"blockTime()": "2429",
				"contractPauser()": "122"
			}
		},
		"methodIdentifiers": {
			"blockTime()": "48b15166",
			"contractPauser()": "007635b6"
		}
	},
	"abi": [
		{
			"inputs": [],
			"name": "blockTime",
			"outputs": [
				{
					"internalType": "uint256",
					"name": "",
					"type": "uint256"
				}
			],
			"stateMutability": "view",
			"type": "function"
		},
		{
			"inputs": [],
			"name": "contractPauser",
			"outputs": [],
			"stateMutability": "view",
			"type": "function"
		}
	]
}